{
  "_format": "hh-sol-artifact-1",
  "contractName": "CryptoTickets",
  "sourceName": "src/blockchain/hardhat/contracts/CryptoTickets.sol",
  "abi": [
    {
      "inputs": [
        {
          "internalType": "address",
          "name": "_admin",
          "type": "address"
        },
        {
          "internalType": "string",
          "name": "_name",
          "type": "string"
        },
        {
          "internalType": "string",
          "name": "_symbol",
          "type": "string"
        },
        {
          "internalType": "uint256",
          "name": "_maxMints",
          "type": "uint256"
        }
      ],
      "stateMutability": "nonpayable",
      "type": "constructor"
    },
    {
      "anonymous": false,
      "inputs": [
        {
          "indexed": true,
          "internalType": "address",
          "name": "owner",
          "type": "address"
        },
        {
          "indexed": true,
          "internalType": "address",
          "name": "approved",
          "type": "address"
        },
        {
          "indexed": true,
          "internalType": "uint256",
          "name": "tokenId",
          "type": "uint256"
        }
      ],
      "name": "Approval",
      "type": "event"
    },
    {
      "anonymous": false,
      "inputs": [
        {
          "indexed": true,
          "internalType": "address",
          "name": "owner",
          "type": "address"
        },
        {
          "indexed": true,
          "internalType": "address",
          "name": "operator",
          "type": "address"
        },
        {
          "indexed": false,
          "internalType": "bool",
          "name": "approved",
          "type": "bool"
        }
      ],
      "name": "ApprovalForAll",
      "type": "event"
    },
    {
      "anonymous": false,
      "inputs": [
        {
          "indexed": true,
          "internalType": "address",
          "name": "from",
          "type": "address"
        },
        {
          "indexed": true,
          "internalType": "address",
          "name": "to",
          "type": "address"
        },
        {
          "indexed": true,
          "internalType": "uint256",
          "name": "tokenId",
          "type": "uint256"
        }
      ],
      "name": "Transfer",
      "type": "event"
    },
    {
      "inputs": [],
      "name": "admin",
      "outputs": [
        {
          "internalType": "address",
          "name": "",
          "type": "address"
        }
      ],
      "stateMutability": "view",
      "type": "function"
    },
    {
      "inputs": [
        {
          "internalType": "address",
          "name": "to",
          "type": "address"
        },
        {
          "internalType": "uint256",
          "name": "tokenId",
          "type": "uint256"
        }
      ],
      "name": "approve",
      "outputs": [],
      "stateMutability": "nonpayable",
      "type": "function"
    },
    {
      "inputs": [
        {
          "internalType": "address",
          "name": "owner",
          "type": "address"
        }
      ],
      "name": "balanceOf",
      "outputs": [
        {
          "internalType": "uint256",
          "name": "",
          "type": "uint256"
        }
      ],
      "stateMutability": "view",
      "type": "function"
    },
    {
      "inputs": [
        {
          "internalType": "string",
          "name": "_url",
          "type": "string"
        },
        {
          "internalType": "uint256",
          "name": "_tokenId",
          "type": "uint256"
        }
      ],
      "name": "changeURL",
      "outputs": [],
      "stateMutability": "nonpayable",
      "type": "function"
    },
    {
      "inputs": [
        {
          "internalType": "uint256",
          "name": "tokenId",
          "type": "uint256"
        }
      ],
      "name": "getApproved",
      "outputs": [
        {
          "internalType": "address",
          "name": "",
          "type": "address"
        }
      ],
      "stateMutability": "view",
      "type": "function"
    },
    {
      "inputs": [],
      "name": "getReserves",
      "outputs": [],
      "stateMutability": "nonpayable",
      "type": "function"
    },
    {
      "inputs": [
        {
          "internalType": "address",
          "name": "owner",
          "type": "address"
        },
        {
          "internalType": "address",
          "name": "operator",
          "type": "address"
        }
      ],
      "name": "isApprovedForAll",
      "outputs": [
        {
          "internalType": "bool",
          "name": "",
          "type": "bool"
        }
      ],
      "stateMutability": "view",
      "type": "function"
    },
    {
      "inputs": [],
      "name": "maxMints",
      "outputs": [
        {
          "internalType": "uint256",
          "name": "",
          "type": "uint256"
        }
      ],
      "stateMutability": "view",
      "type": "function"
    },
    {
      "inputs": [
        {
          "internalType": "address",
          "name": "_user",
          "type": "address"
        },
        {
          "internalType": "string",
          "name": "tokenURI",
          "type": "string"
        }
      ],
      "name": "mint",
      "outputs": [
        {
          "internalType": "uint256",
          "name": "",
          "type": "uint256"
        }
      ],
      "stateMutability": "nonpayable",
      "type": "function"
    },
    {
      "inputs": [],
      "name": "name",
      "outputs": [
        {
          "internalType": "string",
          "name": "",
          "type": "string"
        }
      ],
      "stateMutability": "view",
      "type": "function"
    },
    {
      "inputs": [
        {
          "internalType": "uint256",
          "name": "tokenId",
          "type": "uint256"
        }
      ],
      "name": "ownerOf",
      "outputs": [
        {
          "internalType": "address",
          "name": "",
          "type": "address"
        }
      ],
      "stateMutability": "view",
      "type": "function"
    },
    {
      "inputs": [
        {
          "internalType": "address",
          "name": "from",
          "type": "address"
        },
        {
          "internalType": "address",
          "name": "to",
          "type": "address"
        },
        {
          "internalType": "uint256",
          "name": "tokenId",
          "type": "uint256"
        }
      ],
      "name": "safeTransferFrom",
      "outputs": [],
      "stateMutability": "nonpayable",
      "type": "function"
    },
    {
      "inputs": [
        {
          "internalType": "address",
          "name": "from",
          "type": "address"
        },
        {
          "internalType": "address",
          "name": "to",
          "type": "address"
        },
        {
          "internalType": "uint256",
          "name": "tokenId",
          "type": "uint256"
        },
        {
          "internalType": "bytes",
          "name": "data",
          "type": "bytes"
        }
      ],
      "name": "safeTransferFrom",
      "outputs": [],
      "stateMutability": "nonpayable",
      "type": "function"
    },
    {
      "inputs": [
        {
          "internalType": "address",
          "name": "operator",
          "type": "address"
        },
        {
          "internalType": "bool",
          "name": "approved",
          "type": "bool"
        }
      ],
      "name": "setApprovalForAll",
      "outputs": [],
      "stateMutability": "nonpayable",
      "type": "function"
    },
    {
      "inputs": [
        {
          "internalType": "bytes4",
          "name": "interfaceId",
          "type": "bytes4"
        }
      ],
      "name": "supportsInterface",
      "outputs": [
        {
          "internalType": "bool",
          "name": "",
          "type": "bool"
        }
      ],
      "stateMutability": "view",
      "type": "function"
    },
    {
      "inputs": [],
      "name": "symbol",
      "outputs": [
        {
          "internalType": "string",
          "name": "",
          "type": "string"
        }
      ],
      "stateMutability": "view",
      "type": "function"
    },
    {
      "inputs": [
        {
          "internalType": "uint256",
          "name": "tokenId",
          "type": "uint256"
        }
      ],
      "name": "tokenURI",
      "outputs": [
        {
          "internalType": "string",
          "name": "",
          "type": "string"
        }
      ],
      "stateMutability": "view",
      "type": "function"
    },
    {
      "inputs": [
        {
          "internalType": "address",
          "name": "from",
          "type": "address"
        },
        {
          "internalType": "address",
          "name": "to",
          "type": "address"
        },
        {
          "internalType": "uint256",
          "name": "tokenId",
          "type": "uint256"
        }
      ],
      "name": "transferFrom",
      "outputs": [],
      "stateMutability": "nonpayable",
      "type": "function"
    }
  ],
  "bytecode": "0x60806040523480156200001157600080fd5b50604051620030cb380380620030cb8339818101604052810190620000379190620003ac565b8282816000908051906020019062000051929190620000bf565b5080600190805190602001906200006a929190620000bf565b5050508060088190555083600760006101000a81548173ffffffffffffffffffffffffffffffffffffffff021916908373ffffffffffffffffffffffffffffffffffffffff16021790555050505050620004c1565b828054620000cd906200048b565b90600052602060002090601f016020900481019282620000f157600085556200013d565b82601f106200010c57805160ff19168380011785556200013d565b828001600101855582156200013d579182015b828111156200013c5782518255916020019190600101906200011f565b5b5090506200014c919062000150565b5090565b5b808211156200016b57600081600090555060010162000151565b5090565b6000604051905090565b600080fd5b600080fd5b600073ffffffffffffffffffffffffffffffffffffffff82169050919050565b6000620001b08262000183565b9050919050565b620001c281620001a3565b8114620001ce57600080fd5b50565b600081519050620001e281620001b7565b92915050565b600080fd5b600080fd5b6000601f19601f8301169050919050565b7f4e487b7100000000000000000000000000000000000000000000000000000000600052604160045260246000fd5b6200023d82620001f2565b810181811067ffffffffffffffff821117156200025f576200025e62000203565b5b80604052505050565b6000620002746200016f565b905062000282828262000232565b919050565b600067ffffffffffffffff821115620002a557620002a462000203565b5b620002b082620001f2565b9050602081019050919050565b60005b83811015620002dd578082015181840152602081019050620002c0565b83811115620002ed576000848401525b50505050565b60006200030a620003048462000287565b62000268565b905082815260208101848484011115620003295762000328620001ed565b5b62000336848285620002bd565b509392505050565b600082601f830112620003565762000355620001e8565b5b815162000368848260208601620002f3565b91505092915050565b6000819050919050565b620003868162000371565b81146200039257600080fd5b50565b600081519050620003a6816200037b565b92915050565b60008060008060808587031215620003c957620003c862000179565b5b6000620003d987828801620001d1565b945050602085015167ffffffffffffffff811115620003fd57620003fc6200017e565b5b6200040b878288016200033e565b935050604085015167ffffffffffffffff8111156200042f576200042e6200017e565b5b6200043d878288016200033e565b9250506060620004508782880162000395565b91505092959194509250565b7f4e487b7100000000000000000000000000000000000000000000000000000000600052602260045260246000fd5b60006002820490506001821680620004a457607f821691505b60208210811415620004bb57620004ba6200045c565b5b50919050565b612bfa80620004d16000396000f3fe608060405234801561001057600080fd5b50600436106101165760003560e01c806395d89b41116100a2578063c87b56dd11610071578063c87b56dd146102cb578063d0def521146102fb578063e985e9c51461032b578063f851a4401461035b578063f85d4a4a1461037957610116565b806395d89b4114610257578063a22cb46514610275578063b6b6f0c314610291578063b88d4fde146102af57610116565b8063095ea7b3116100e9578063095ea7b3146101a357806323b872dd146101bf57806342842e0e146101db5780636352211e146101f757806370a082311461022757610116565b806301ffc9a71461011b57806306fdde031461014b578063081812fc146101695780630902f1ac14610199575b600080fd5b61013560048036038101906101309190611b02565b610395565b6040516101429190611b4a565b60405180910390f35b610153610477565b6040516101609190611bfe565b60405180910390f35b610183600480360381019061017e9190611c56565b610509565b6040516101909190611cc4565b60405180910390f35b6101a161054f565b005b6101bd60048036038101906101b89190611d0b565b610652565b005b6101d960048036038101906101d49190611d4b565b61076a565b005b6101f560048036038101906101f09190611d4b565b6107ca565b005b610211600480360381019061020c9190611c56565b6107ea565b60405161021e9190611cc4565b60405180910390f35b610241600480360381019061023c9190611d9e565b61089c565b60405161024e9190611dda565b60405180910390f35b61025f610954565b60405161026c9190611bfe565b60405180910390f35b61028f600480360381019061028a9190611e21565b6109e6565b005b6102996109fc565b6040516102a69190611dda565b60405180910390f35b6102c960048036038101906102c49190611f96565b610a02565b005b6102e560048036038101906102e09190611c56565b610a64565b6040516102f29190611bfe565b60405180910390f35b610315600480360381019061031091906120ba565b610b77565b6040516103229190611dda565b60405180910390f35b61034560048036038101906103409190612116565b610bf2565b6040516103529190611b4a565b60405180910390f35b610363610c86565b6040516103709190611cc4565b60405180910390f35b610393600480360381019061038e9190612156565b610cac565b005b60007f80ac58cd000000000000000000000000000000000000000000000000000000007bffffffffffffffffffffffffffffffffffffffffffffffffffffffff1916827bffffffffffffffffffffffffffffffffffffffffffffffffffffffff1916148061046057507f5b5e139f000000000000000000000000000000000000000000000000000000007bffffffffffffffffffffffffffffffffffffffffffffffffffffffff1916827bffffffffffffffffffffffffffffffffffffffffffffffffffffffff1916145b80610470575061046f82610d36565b5b9050919050565b606060008054610486906121e1565b80601f01602080910402602001604051908101604052809291908181526020018280546104b2906121e1565b80156104ff5780601f106104d4576101008083540402835291602001916104ff565b820191906000526020600020905b8154815290600101906020018083116104e257829003601f168201915b5050505050905090565b600061051482610da0565b6004600083815260200190815260200160002060009054906101000a900473ffffffffffffffffffffffffffffffffffffffff169050919050565b600760009054906101000a900473ffffffffffffffffffffffffffffffffffffffff1673ffffffffffffffffffffffffffffffffffffffff163373ffffffffffffffffffffffffffffffffffffffff16146105df576040517f08c379a00000000000000000000000000000000000000000000000000000000081526004016105d69061225f565b60405180910390fd5b600760009054906101000a900473ffffffffffffffffffffffffffffffffffffffff1673ffffffffffffffffffffffffffffffffffffffff166108fc6106243061089c565b9081150290604051600060405180830381858888f1935050505015801561064f573d6000803e3d6000fd5b50565b600061065d826107ea565b90508073ffffffffffffffffffffffffffffffffffffffff168373ffffffffffffffffffffffffffffffffffffffff1614156106ce576040517f08c379a00000000000000000000000000000000000000000000000000000000081526004016106c5906122f1565b60405180910390fd5b8073ffffffffffffffffffffffffffffffffffffffff166106ed610deb565b73ffffffffffffffffffffffffffffffffffffffff16148061071c575061071b81610716610deb565b610bf2565b5b61075b576040517f08c379a000000000000000000000000000000000000000000000000000000000815260040161075290612383565b60405180910390fd5b6107658383610df3565b505050565b61077b610775610deb565b82610eac565b6107ba576040517f08c379a00000000000000000000000000000000000000000000000000000000081526004016107b190612415565b60405180910390fd5b6107c5838383610f41565b505050565b6107e583838360405180602001604052806000815250610a02565b505050565b6000806002600084815260200190815260200160002060009054906101000a900473ffffffffffffffffffffffffffffffffffffffff169050600073ffffffffffffffffffffffffffffffffffffffff168173ffffffffffffffffffffffffffffffffffffffff161415610893576040517f08c379a000000000000000000000000000000000000000000000000000000000815260040161088a90612481565b60405180910390fd5b80915050919050565b60008073ffffffffffffffffffffffffffffffffffffffff168273ffffffffffffffffffffffffffffffffffffffff16141561090d576040517f08c379a000000000000000000000000000000000000000000000000000000000815260040161090490612513565b60405180910390fd5b600360008373ffffffffffffffffffffffffffffffffffffffff1673ffffffffffffffffffffffffffffffffffffffff168152602001908152602001600020549050919050565b606060018054610963906121e1565b80601f016020809104026020016040519081016040528092919081815260200182805461098f906121e1565b80156109dc5780601f106109b1576101008083540402835291602001916109dc565b820191906000526020600020905b8154815290600101906020018083116109bf57829003601f168201915b5050505050905090565b6109f86109f1610deb565b83836111a8565b5050565b60085481565b610a13610a0d610deb565b83610eac565b610a52576040517f08c379a0000000000000000000000000000000000000000000000000000000008152600401610a4990612415565b60405180910390fd5b610a5e84848484611315565b50505050565b6060610a6f82610da0565b6000600660008481526020019081526020016000208054610a8f906121e1565b80601f0160208091040260200160405190810160405280929190818152602001828054610abb906121e1565b8015610b085780601f10610add57610100808354040283529160200191610b08565b820191906000526020600020905b815481529060010190602001808311610aeb57829003601f168201915b505050505090506000610b19611371565b9050600081511415610b2f578192505050610b72565b600082511115610b64578082604051602001610b4c92919061256f565b60405160208183030381529060405292505050610b72565b610b6d84611388565b925050505b919050565b600080610b8460096113f0565b90506008548110610bca576040517f08c379a0000000000000000000000000000000000000000000000000000000008152600401610bc19061225f565b60405180910390fd5b610bd484826113fe565b610bde81846115d8565b610be8600961164c565b8091505092915050565b6000600560008473ffffffffffffffffffffffffffffffffffffffff1673ffffffffffffffffffffffffffffffffffffffff16815260200190815260200160002060008373ffffffffffffffffffffffffffffffffffffffff1673ffffffffffffffffffffffffffffffffffffffff16815260200190815260200160002060009054906101000a900460ff16905092915050565b600760009054906101000a900473ffffffffffffffffffffffffffffffffffffffff1681565b6000610cb7826107ea565b90503373ffffffffffffffffffffffffffffffffffffffff168173ffffffffffffffffffffffffffffffffffffffff1614610d27576040517f08c379a0000000000000000000000000000000000000000000000000000000008152600401610d1e9061225f565b60405180910390fd5b610d3182846115d8565b505050565b60007f01ffc9a7000000000000000000000000000000000000000000000000000000007bffffffffffffffffffffffffffffffffffffffffffffffffffffffff1916827bffffffffffffffffffffffffffffffffffffffffffffffffffffffff1916149050919050565b610da981611662565b610de8576040517f08c379a0000000000000000000000000000000000000000000000000000000008152600401610ddf90612481565b60405180910390fd5b50565b600033905090565b816004600083815260200190815260200160002060006101000a81548173ffffffffffffffffffffffffffffffffffffffff021916908373ffffffffffffffffffffffffffffffffffffffff160217905550808273ffffffffffffffffffffffffffffffffffffffff16610e66836107ea565b73ffffffffffffffffffffffffffffffffffffffff167f8c5be1e5ebec7d5bd14f71427d1e84f3dd0314c0f7b2291e5b200ac8c7c3b92560405160405180910390a45050565b600080610eb8836107ea565b90508073ffffffffffffffffffffffffffffffffffffffff168473ffffffffffffffffffffffffffffffffffffffff161480610efa5750610ef98185610bf2565b5b80610f3857508373ffffffffffffffffffffffffffffffffffffffff16610f2084610509565b73ffffffffffffffffffffffffffffffffffffffff16145b91505092915050565b8273ffffffffffffffffffffffffffffffffffffffff16610f61826107ea565b73ffffffffffffffffffffffffffffffffffffffff1614610fb7576040517f08c379a0000000000000000000000000000000000000000000000000000000008152600401610fae90612605565b60405180910390fd5b600073ffffffffffffffffffffffffffffffffffffffff168273ffffffffffffffffffffffffffffffffffffffff161415611027576040517f08c379a000000000000000000000000000000000000000000000000000000000815260040161101e90612697565b60405180910390fd5b6110328383836116ce565b61103d600082610df3565b6001600360008573ffffffffffffffffffffffffffffffffffffffff1673ffffffffffffffffffffffffffffffffffffffff168152602001908152602001600020600082825461108d91906126e6565b925050819055506001600360008473ffffffffffffffffffffffffffffffffffffffff1673ffffffffffffffffffffffffffffffffffffffff16815260200190815260200160002060008282546110e4919061271a565b92505081905550816002600083815260200190815260200160002060006101000a81548173ffffffffffffffffffffffffffffffffffffffff021916908373ffffffffffffffffffffffffffffffffffffffff160217905550808273ffffffffffffffffffffffffffffffffffffffff168473ffffffffffffffffffffffffffffffffffffffff167fddf252ad1be2c89b69c2b068fc378daa952ba7f163c4a11628f55a4df523b3ef60405160405180910390a46111a38383836116d3565b505050565b8173ffffffffffffffffffffffffffffffffffffffff168373ffffffffffffffffffffffffffffffffffffffff161415611217576040517f08c379a000000000000000000000000000000000000000000000000000000000815260040161120e906127bc565b60405180910390fd5b80600560008573ffffffffffffffffffffffffffffffffffffffff1673ffffffffffffffffffffffffffffffffffffffff16815260200190815260200160002060008473ffffffffffffffffffffffffffffffffffffffff1673ffffffffffffffffffffffffffffffffffffffff16815260200190815260200160002060006101000a81548160ff0219169083151502179055508173ffffffffffffffffffffffffffffffffffffffff168373ffffffffffffffffffffffffffffffffffffffff167f17307eab39ab6107e8899845ad3d59bd9653f200f220920489ca2b5937696c31836040516113089190611b4a565b60405180910390a3505050565b611320848484610f41565b61132c848484846116d8565b61136b576040517f08c379a00000000000000000000000000000000000000000000000000000000081526004016113629061284e565b60405180910390fd5b50505050565b606060405180602001604052806000815250905090565b606061139382610da0565b600061139d611371565b905060008151116113bd57604051806020016040528060008152506113e8565b806113c78461186f565b6040516020016113d892919061256f565b6040516020818303038152906040525b915050919050565b600081600001549050919050565b600073ffffffffffffffffffffffffffffffffffffffff168273ffffffffffffffffffffffffffffffffffffffff16141561146e576040517f08c379a0000000000000000000000000000000000000000000000000000000008152600401611465906128ba565b60405180910390fd5b61147781611662565b156114b7576040517f08c379a00000000000000000000000000000000000000000000000000000000081526004016114ae90612926565b60405180910390fd5b6114c3600083836116ce565b6001600360008473ffffffffffffffffffffffffffffffffffffffff1673ffffffffffffffffffffffffffffffffffffffff1681526020019081526020016000206000828254611513919061271a565b92505081905550816002600083815260200190815260200160002060006101000a81548173ffffffffffffffffffffffffffffffffffffffff021916908373ffffffffffffffffffffffffffffffffffffffff160217905550808273ffffffffffffffffffffffffffffffffffffffff16600073ffffffffffffffffffffffffffffffffffffffff167fddf252ad1be2c89b69c2b068fc378daa952ba7f163c4a11628f55a4df523b3ef60405160405180910390a46115d4600083836116d3565b5050565b6115e182611662565b611620576040517f08c379a0000000000000000000000000000000000000000000000000000000008152600401611617906129b8565b60405180910390fd5b806006600084815260200190815260200160002090805190602001906116479291906119f3565b505050565b6001816000016000828254019250508190555050565b60008073ffffffffffffffffffffffffffffffffffffffff166002600084815260200190815260200160002060009054906101000a900473ffffffffffffffffffffffffffffffffffffffff1673ffffffffffffffffffffffffffffffffffffffff1614159050919050565b505050565b505050565b60006116f98473ffffffffffffffffffffffffffffffffffffffff166119d0565b15611862578373ffffffffffffffffffffffffffffffffffffffff1663150b7a02611722610deb565b8786866040518563ffffffff1660e01b81526004016117449493929190612a2d565b602060405180830381600087803b15801561175e57600080fd5b505af192505050801561178f57506040513d601f19601f8201168201806040525081019061178c9190612a8e565b60015b611812573d80600081146117bf576040519150601f19603f3d011682016040523d82523d6000602084013e6117c4565b606091505b5060008151141561180a576040517f08c379a00000000000000000000000000000000000000000000000000000000081526004016118019061284e565b60405180910390fd5b805181602001fd5b63150b7a0260e01b7bffffffffffffffffffffffffffffffffffffffffffffffffffffffff1916817bffffffffffffffffffffffffffffffffffffffffffffffffffffffff191614915050611867565b600190505b949350505050565b606060008214156118b7576040518060400160405280600181526020017f300000000000000000000000000000000000000000000000000000000000000081525090506119cb565b600082905060005b600082146118e95780806118d290612abb565b915050600a826118e29190612b33565b91506118bf565b60008167ffffffffffffffff81111561190557611904611e6b565b5b6040519080825280601f01601f1916602001820160405280156119375781602001600182028036833780820191505090505b5090505b600085146119c45760018261195091906126e6565b9150600a8561195f9190612b64565b603061196b919061271a565b60f81b81838151811061198157611980612b95565b5b60200101907effffffffffffffffffffffffffffffffffffffffffffffffffffffffffffff1916908160001a905350600a856119bd9190612b33565b945061193b565b8093505050505b919050565b6000808273ffffffffffffffffffffffffffffffffffffffff163b119050919050565b8280546119ff906121e1565b90600052602060002090601f016020900481019282611a215760008555611a68565b82601f10611a3a57805160ff1916838001178555611a68565b82800160010185558215611a68579182015b82811115611a67578251825591602001919060010190611a4c565b5b509050611a759190611a79565b5090565b5b80821115611a92576000816000905550600101611a7a565b5090565b6000604051905090565b600080fd5b600080fd5b60007fffffffff0000000000000000000000000000000000000000000000000000000082169050919050565b611adf81611aaa565b8114611aea57600080fd5b50565b600081359050611afc81611ad6565b92915050565b600060208284031215611b1857611b17611aa0565b5b6000611b2684828501611aed565b91505092915050565b60008115159050919050565b611b4481611b2f565b82525050565b6000602082019050611b5f6000830184611b3b565b92915050565b600081519050919050565b600082825260208201905092915050565b60005b83811015611b9f578082015181840152602081019050611b84565b83811115611bae576000848401525b50505050565b6000601f19601f8301169050919050565b6000611bd082611b65565b611bda8185611b70565b9350611bea818560208601611b81565b611bf381611bb4565b840191505092915050565b60006020820190508181036000830152611c188184611bc5565b905092915050565b6000819050919050565b611c3381611c20565b8114611c3e57600080fd5b50565b600081359050611c5081611c2a565b92915050565b600060208284031215611c6c57611c6b611aa0565b5b6000611c7a84828501611c41565b91505092915050565b600073ffffffffffffffffffffffffffffffffffffffff82169050919050565b6000611cae82611c83565b9050919050565b611cbe81611ca3565b82525050565b6000602082019050611cd96000830184611cb5565b92915050565b611ce881611ca3565b8114611cf357600080fd5b50565b600081359050611d0581611cdf565b92915050565b60008060408385031215611d2257611d21611aa0565b5b6000611d3085828601611cf6565b9250506020611d4185828601611c41565b9150509250929050565b600080600060608486031215611d6457611d63611aa0565b5b6000611d7286828701611cf6565b9350506020611d8386828701611cf6565b9250506040611d9486828701611c41565b9150509250925092565b600060208284031215611db457611db3611aa0565b5b6000611dc284828501611cf6565b91505092915050565b611dd481611c20565b82525050565b6000602082019050611def6000830184611dcb565b92915050565b611dfe81611b2f565b8114611e0957600080fd5b50565b600081359050611e1b81611df5565b92915050565b60008060408385031215611e3857611e37611aa0565b5b6000611e4685828601611cf6565b9250506020611e5785828601611e0c565b9150509250929050565b600080fd5b600080fd5b7f4e487b7100000000000000000000000000000000000000000000000000000000600052604160045260246000fd5b611ea382611bb4565b810181811067ffffffffffffffff82111715611ec257611ec1611e6b565b5b80604052505050565b6000611ed5611a96565b9050611ee18282611e9a565b919050565b600067ffffffffffffffff821115611f0157611f00611e6b565b5b611f0a82611bb4565b9050602081019050919050565b82818337600083830152505050565b6000611f39611f3484611ee6565b611ecb565b905082815260208101848484011115611f5557611f54611e66565b5b611f60848285611f17565b509392505050565b600082601f830112611f7d57611f7c611e61565b5b8135611f8d848260208601611f26565b91505092915050565b60008060008060808587031215611fb057611faf611aa0565b5b6000611fbe87828801611cf6565b9450506020611fcf87828801611cf6565b9350506040611fe087828801611c41565b925050606085013567ffffffffffffffff81111561200157612000611aa5565b5b61200d87828801611f68565b91505092959194509250565b600067ffffffffffffffff82111561203457612033611e6b565b5b61203d82611bb4565b9050602081019050919050565b600061205d61205884612019565b611ecb565b90508281526020810184848401111561207957612078611e66565b5b612084848285611f17565b509392505050565b600082601f8301126120a1576120a0611e61565b5b81356120b184826020860161204a565b91505092915050565b600080604083850312156120d1576120d0611aa0565b5b60006120df85828601611cf6565b925050602083013567ffffffffffffffff811115612100576120ff611aa5565b5b61210c8582860161208c565b9150509250929050565b6000806040838503121561212d5761212c611aa0565b5b600061213b85828601611cf6565b925050602061214c85828601611cf6565b9150509250929050565b6000806040838503121561216d5761216c611aa0565b5b600083013567ffffffffffffffff81111561218b5761218a611aa5565b5b6121978582860161208c565b92505060206121a885828601611c41565b9150509250929050565b7f4e487b7100000000000000000000000000000000000000000000000000000000600052602260045260246000fd5b600060028204905060018216806121f957607f821691505b6020821081141561220d5761220c6121b2565b5b50919050565b7f637279746f5469636b6574733a20666f7262696464656e000000000000000000600082015250565b6000612249601783611b70565b915061225482612213565b602082019050919050565b600060208201905081810360008301526122788161223c565b9050919050565b7f4552433732313a20617070726f76616c20746f2063757272656e74206f776e6560008201527f7200000000000000000000000000000000000000000000000000000000000000602082015250565b60006122db602183611b70565b91506122e68261227f565b604082019050919050565b6000602082019050818103600083015261230a816122ce565b9050919050565b7f4552433732313a20617070726f76652063616c6c6572206973206e6f7420746f60008201527f6b656e206f776e6572206e6f7220617070726f76656420666f7220616c6c0000602082015250565b600061236d603e83611b70565b915061237882612311565b604082019050919050565b6000602082019050818103600083015261239c81612360565b9050919050565b7f4552433732313a2063616c6c6572206973206e6f7420746f6b656e206f776e6560008201527f72206e6f7220617070726f766564000000000000000000000000000000000000602082015250565b60006123ff602e83611b70565b915061240a826123a3565b604082019050919050565b6000602082019050818103600083015261242e816123f2565b9050919050565b7f4552433732313a20696e76616c696420746f6b656e2049440000000000000000600082015250565b600061246b601883611b70565b915061247682612435565b602082019050919050565b6000602082019050818103600083015261249a8161245e565b9050919050565b7f4552433732313a2061646472657373207a65726f206973206e6f74206120766160008201527f6c6964206f776e65720000000000000000000000000000000000000000000000602082015250565b60006124fd602983611b70565b9150612508826124a1565b604082019050919050565b6000602082019050818103600083015261252c816124f0565b9050919050565b600081905092915050565b600061254982611b65565b6125538185612533565b9350612563818560208601611b81565b80840191505092915050565b600061257b828561253e565b9150612587828461253e565b91508190509392505050565b7f4552433732313a207472616e736665722066726f6d20696e636f72726563742060008201527f6f776e6572000000000000000000000000000000000000000000000000000000602082015250565b60006125ef602583611b70565b91506125fa82612593565b604082019050919050565b6000602082019050818103600083015261261e816125e2565b9050919050565b7f4552433732313a207472616e7366657220746f20746865207a65726f2061646460008201527f7265737300000000000000000000000000000000000000000000000000000000602082015250565b6000612681602483611b70565b915061268c82612625565b604082019050919050565b600060208201905081810360008301526126b081612674565b9050919050565b7f4e487b7100000000000000000000000000000000000000000000000000000000600052601160045260246000fd5b60006126f182611c20565b91506126fc83611c20565b92508282101561270f5761270e6126b7565b5b828203905092915050565b600061272582611c20565b915061273083611c20565b9250827fffffffffffffffffffffffffffffffffffffffffffffffffffffffffffffffff03821115612765576127646126b7565b5b828201905092915050565b7f4552433732313a20617070726f766520746f2063616c6c657200000000000000600082015250565b60006127a6601983611b70565b91506127b182612770565b602082019050919050565b600060208201905081810360008301526127d581612799565b9050919050565b7f4552433732313a207472616e7366657220746f206e6f6e20455243373231526560008201527f63656976657220696d706c656d656e7465720000000000000000000000000000602082015250565b6000612838603283611b70565b9150612843826127dc565b604082019050919050565b600060208201905081810360008301526128678161282b565b9050919050565b7f4552433732313a206d696e7420746f20746865207a65726f2061646472657373600082015250565b60006128a4602083611b70565b91506128af8261286e565b602082019050919050565b600060208201905081810360008301526128d381612897565b9050919050565b7f4552433732313a20746f6b656e20616c7265616479206d696e74656400000000600082015250565b6000612910601c83611b70565b915061291b826128da565b602082019050919050565b6000602082019050818103600083015261293f81612903565b9050919050565b7f45524337323155524953746f726167653a2055524920736574206f66206e6f6e60008201527f6578697374656e7420746f6b656e000000000000000000000000000000000000602082015250565b60006129a2602e83611b70565b91506129ad82612946565b604082019050919050565b600060208201905081810360008301526129d181612995565b9050919050565b600081519050919050565b600082825260208201905092915050565b60006129ff826129d8565b612a0981856129e3565b9350612a19818560208601611b81565b612a2281611bb4565b840191505092915050565b6000608082019050612a426000830187611cb5565b612a4f6020830186611cb5565b612a5c6040830185611dcb565b8181036060830152612a6e81846129f4565b905095945050505050565b600081519050612a8881611ad6565b92915050565b600060208284031215612aa457612aa3611aa0565b5b6000612ab284828501612a79565b91505092915050565b6000612ac682611c20565b91507fffffffffffffffffffffffffffffffffffffffffffffffffffffffffffffffff821415612af957612af86126b7565b5b600182019050919050565b7f4e487b7100000000000000000000000000000000000000000000000000000000600052601260045260246000fd5b6000612b3e82611c20565b9150612b4983611c20565b925082612b5957612b58612b04565b5b828204905092915050565b6000612b6f82611c20565b9150612b7a83611c20565b925082612b8a57612b89612b04565b5b828206905092915050565b7f4e487b7100000000000000000000000000000000000000000000000000000000600052603260045260246000fdfea2646970667358221220f2a8fffb3e36d2cb84562e212fa7578763bc78dd0e4341704e75a36796ede80564736f6c63430008090033",
  "linkReferences": {},
  "deployedLinkReferences": {}
}